{
  "_format": "hh-sol-artifact-1",
  "contractName": "LaunchpadFactory",
  "sourceName": "contracts/LaunchpadFactory.sol",
  "abi": [
    {
      "inputs": [
        {
          "internalType": "address",
          "name": "initialOwner",
          "type": "address"
        },
        {
          "internalType": "contract IERC20",
          "name": "_usdcToken",
          "type": "address"
        }
      ],
      "stateMutability": "nonpayable",
      "type": "constructor"
    },
    {
      "inputs": [
        {
          "internalType": "address",
          "name": "owner",
          "type": "address"
        }
      ],
      "name": "OwnableInvalidOwner",
      "type": "error"
    },
    {
      "inputs": [
        {
          "internalType": "address",
          "name": "account",
          "type": "address"
        }
      ],
      "name": "OwnableUnauthorizedAccount",
      "type": "error"
    },
    {
      "inputs": [
        {
          "internalType": "address",
          "name": "token",
          "type": "address"
        }
      ],
      "name": "SafeERC20FailedOperation",
      "type": "error"
    },
    {
      "anonymous": false,
      "inputs": [
        {
          "indexed": true,
          "internalType": "address",
          "name": "launchpad",
          "type": "address"
        },
        {
          "indexed": true,
          "internalType": "address",
          "name": "token",
          "type": "address"
        },
        {
          "indexed": true,
          "internalType": "address",
          "name": "signer",
          "type": "address"
        },
        {
          "indexed": false,
          "internalType": "uint256",
          "name": "sellerPrice",
          "type": "uint256"
        }
      ],
      "name": "LaunchpadCreated",
      "type": "event"
    },
    {
      "anonymous": false,
      "inputs": [
        {
          "indexed": true,
          "internalType": "address",
          "name": "previousOwner",
          "type": "address"
        },
        {
          "indexed": true,
          "internalType": "address",
          "name": "newOwner",
          "type": "address"
        }
      ],
      "name": "OwnershipTransferred",
      "type": "event"
    },
    {
      "inputs": [],
      "name": "FEE_DENOMINATOR",
      "outputs": [
        {
          "internalType": "uint256",
          "name": "",
          "type": "uint256"
        }
      ],
      "stateMutability": "view",
      "type": "function"
    },
    {
      "inputs": [],
      "name": "FEE_NUMERATOR",
      "outputs": [
        {
          "internalType": "uint256",
          "name": "",
          "type": "uint256"
        }
      ],
      "stateMutability": "view",
      "type": "function"
    },
    {
      "inputs": [
        {
          "internalType": "contract IERC20",
          "name": "token",
          "type": "address"
        },
        {
          "internalType": "address",
          "name": "signer",
          "type": "address"
        },
        {
          "internalType": "uint256",
          "name": "sellerPrice",
          "type": "uint256"
        }
      ],
      "name": "createLaunchpad",
      "outputs": [
        {
          "internalType": "address",
          "name": "launchpadAddress",
          "type": "address"
        }
      ],
      "stateMutability": "nonpayable",
      "type": "function"
    },
    {
      "inputs": [],
      "name": "getAllLaunchpads",
      "outputs": [
        {
          "internalType": "address[]",
          "name": "",
          "type": "address[]"
        }
      ],
      "stateMutability": "view",
      "type": "function"
    },
    {
      "inputs": [],
      "name": "getLaunchpadCount",
      "outputs": [
        {
          "internalType": "uint256",
          "name": "",
          "type": "uint256"
        }
      ],
      "stateMutability": "view",
      "type": "function"
    },
    {
      "inputs": [
        {
          "internalType": "address",
          "name": "launchpadAddress",
          "type": "address"
        }
      ],
      "name": "invalidateLaunchpad",
      "outputs": [],
      "stateMutability": "nonpayable",
      "type": "function"
    },
    {
      "inputs": [
        {
          "internalType": "address",
          "name": "",
          "type": "address"
        }
      ],
      "name": "isLaunchpadValid",
      "outputs": [
        {
          "internalType": "bool",
          "name": "",
          "type": "bool"
        }
      ],
      "stateMutability": "view",
      "type": "function"
    },
    {
      "inputs": [
        {
          "internalType": "uint256",
          "name": "",
          "type": "uint256"
        }
      ],
      "name": "launchpads",
      "outputs": [
        {
          "internalType": "address",
          "name": "",
          "type": "address"
        }
      ],
      "stateMutability": "view",
      "type": "function"
    },
    {
      "inputs": [],
      "name": "owner",
      "outputs": [
        {
          "internalType": "address",
          "name": "",
          "type": "address"
        }
      ],
      "stateMutability": "view",
      "type": "function"
    },
    {
      "inputs": [],
      "name": "renounceOwnership",
      "outputs": [],
      "stateMutability": "nonpayable",
      "type": "function"
    },
    {
      "inputs": [],
      "name": "superAdmin",
      "outputs": [
        {
          "internalType": "address",
          "name": "",
          "type": "address"
        }
      ],
      "stateMutability": "view",
      "type": "function"
    },
    {
      "inputs": [
        {
          "internalType": "address",
          "name": "newOwner",
          "type": "address"
        }
      ],
      "name": "transferOwnership",
      "outputs": [],
      "stateMutability": "nonpayable",
      "type": "function"
    },
    {
      "inputs": [],
      "name": "usdcToken",
      "outputs": [
        {
          "internalType": "contract IERC20",
          "name": "",
          "type": "address"
        }
      ],
      "stateMutability": "view",
      "type": "function"
    }
  ],
  "bytecode": "0x60806040523480156200001157600080fd5b506040516200436c3803806200436c8339818101604052810190620000379190620002bc565b81600073ffffffffffffffffffffffffffffffffffffffff168173ffffffffffffffffffffffffffffffffffffffff1603620000ad5760006040517f1e4fbdf7000000000000000000000000000000000000000000000000000000008152600401620000a4919062000314565b60405180910390fd5b620000be816200014960201b60201c565b5080600360006101000a81548173ffffffffffffffffffffffffffffffffffffffff021916908373ffffffffffffffffffffffffffffffffffffffff16021790555081600460006101000a81548173ffffffffffffffffffffffffffffffffffffffff021916908373ffffffffffffffffffffffffffffffffffffffff160217905550505062000331565b60008060009054906101000a900473ffffffffffffffffffffffffffffffffffffffff169050816000806101000a81548173ffffffffffffffffffffffffffffffffffffffff021916908373ffffffffffffffffffffffffffffffffffffffff1602179055508173ffffffffffffffffffffffffffffffffffffffff168173ffffffffffffffffffffffffffffffffffffffff167f8be0079c531659141344cd1fd0a4f28419497f9722a3daafe3b4186f6b6457e060405160405180910390a35050565b600080fd5b600073ffffffffffffffffffffffffffffffffffffffff82169050919050565b60006200023f8262000212565b9050919050565b620002518162000232565b81146200025d57600080fd5b50565b600081519050620002718162000246565b92915050565b6000620002848262000232565b9050919050565b620002968162000277565b8114620002a257600080fd5b50565b600081519050620002b6816200028b565b92915050565b60008060408385031215620002d657620002d56200020d565b5b6000620002e68582860162000260565b9250506020620002f985828601620002a5565b9150509250929050565b6200030e8162000232565b82525050565b60006020820190506200032b600083018462000303565b92915050565b61402b80620003416000396000f3fe60806040523480156200001157600080fd5b5060043610620000e25760003560e01c80637c0bb6b711620000995780639ceba4a8116200006f5780639ceba4a81462000229578063d73792a9146200025f578063f2fde38b1462000281578063f750477114620002a157620000e2565b80637c0bb6b714620001c55780638da5cb5b14620001e757806399dc9cc7146200020957620000e2565b806311eac85514620000e7578063234dff4a146200010957806329575f6a146200013f57806341cd47bf14620001615780635be5f0bc1462000183578063715018a614620001b9575b600080fd5b620000f1620002c3565b60405162000100919062000c9a565b60405180910390f35b62000127600480360381019062000121919062000d01565b620002e9565b60405162000136919062000d50565b60405180910390f35b6200014962000309565b60405162000158919062000d7e565b60405180910390f35b6200016b6200032f565b6040516200017a919062000db6565b60405180910390f35b620001a160048036038101906200019b919062000e04565b62000334565b604051620001b0919062000d7e565b60405180910390f35b620001c362000374565b005b620001cf6200038c565b604051620001de919062000f04565b60405180910390f35b620001f16200041c565b60405162000200919062000d7e565b60405180910390f35b62000227600480360381019062000221919062000d01565b62000445565b005b62000247600480360381019062000241919062000f6d565b62000539565b60405162000256919062000d7e565b60405180910390f35b62000269620008d6565b60405162000278919062000db6565b60405180910390f35b6200029f600480360381019062000299919062000d01565b620008dd565b005b620002ab6200096a565b604051620002ba919062000db6565b60405180910390f35b600360009054906101000a900473ffffffffffffffffffffffffffffffffffffffff1681565b60026020528060005260406000206000915054906101000a900460ff1681565b600460009054906101000a900473ffffffffffffffffffffffffffffffffffffffff1681565b600181565b600181815481106200034557600080fd5b906000526020600020016000915054906101000a900473ffffffffffffffffffffffffffffffffffffffff1681565b6200037e62000977565b6200038a600062000a07565b565b606060018054806020026020016040519081016040528092919081815260200182805480156200041257602002820191906000526020600020905b8160009054906101000a900473ffffffffffffffffffffffffffffffffffffffff1673ffffffffffffffffffffffffffffffffffffffff1681526020019060010190808311620003c7575b5050505050905090565b60008060009054906101000a900473ffffffffffffffffffffffffffffffffffffffff16905090565b6200044f62000977565b600260008273ffffffffffffffffffffffffffffffffffffffff1673ffffffffffffffffffffffffffffffffffffffff16815260200190815260200160002060009054906101000a900460ff16620004de576040517f08c379a0000000000000000000000000000000000000000000000000000000008152600401620004d5906200102a565b60405180910390fd5b6000600260008373ffffffffffffffffffffffffffffffffffffffff1673ffffffffffffffffffffffffffffffffffffffff16815260200190815260200160002060006101000a81548160ff02191690831515021790555050565b60008073ffffffffffffffffffffffffffffffffffffffff168473ffffffffffffffffffffffffffffffffffffffff1603620005ac576040517f08c379a0000000000000000000000000000000000000000000000000000000008152600401620005a3906200109c565b60405180910390fd5b600073ffffffffffffffffffffffffffffffffffffffff168373ffffffffffffffffffffffffffffffffffffffff16036200061e576040517f08c379a000000000000000000000000000000000000000000000000000000000815260040162000615906200110e565b60405180910390fd5b6000821162000664576040517f08c379a00000000000000000000000000000000000000000000000000000000081526004016200065b9062001180565b60405180910390fd5b60008484604051620006769062000c01565b62000683929190620011a2565b604051809103906000f080158015620006a0573d6000803e3d6000fd5b5090506200071a33600460009054906101000a900473ffffffffffffffffffffffffffffffffffffffff1663025317c0600360009054906101000a900473ffffffffffffffffffffffffffffffffffffffff1673ffffffffffffffffffffffffffffffffffffffff1662000acb909392919063ffffffff16565b8073ffffffffffffffffffffffffffffffffffffffff1663f2fde38b620007406200041c565b6040518263ffffffff1660e01b81526004016200075e919062000d7e565b600060405180830381600087803b1580156200077957600080fd5b505af11580156200078e573d6000803e3d6000fd5b505050508091506001829080600181540180825580915050600190039060005260206000200160009091909190916101000a81548173ffffffffffffffffffffffffffffffffffffffff021916908373ffffffffffffffffffffffffffffffffffffffff1602179055506001600260008473ffffffffffffffffffffffffffffffffffffffff1673ffffffffffffffffffffffffffffffffffffffff16815260200190815260200160002060006101000a81548160ff0219169083151502179055508373ffffffffffffffffffffffffffffffffffffffff168573ffffffffffffffffffffffffffffffffffffffff168373ffffffffffffffffffffffffffffffffffffffff167f9a67f706fe6d3eaf882cc4fc92a2acaa49d9a9c8ae53b46ba701e97450981c3386604051620008c6919062000db6565b60405180910390a4509392505050565b620186a081565b620008e762000977565b600073ffffffffffffffffffffffffffffffffffffffff168173ffffffffffffffffffffffffffffffffffffffff16036200095c5760006040517f1e4fbdf700000000000000000000000000000000000000000000000000000000815260040162000953919062000d7e565b60405180910390fd5b620009678162000a07565b50565b6000600180549050905090565b6200098162000b51565b73ffffffffffffffffffffffffffffffffffffffff16620009a16200041c565b73ffffffffffffffffffffffffffffffffffffffff161462000a0557620009c762000b51565b6040517f118cdaa7000000000000000000000000000000000000000000000000000000008152600401620009fc919062000d7e565b60405180910390fd5b565b60008060009054906101000a900473ffffffffffffffffffffffffffffffffffffffff169050816000806101000a81548173ffffffffffffffffffffffffffffffffffffffff021916908373ffffffffffffffffffffffffffffffffffffffff1602179055508173ffffffffffffffffffffffffffffffffffffffff168173ffffffffffffffffffffffffffffffffffffffff167f8be0079c531659141344cd1fd0a4f28419497f9722a3daafe3b4186f6b6457e060405160405180910390a35050565b62000b4b848573ffffffffffffffffffffffffffffffffffffffff166323b872dd86868660405160240162000b0393929190620011cf565b604051602081830303815290604052915060e01b6020820180517bffffffffffffffffffffffffffffffffffffffffffffffffffffffff838183161783525050505062000b59565b50505050565b600033905090565b600080602060008451602086016000885af18062000b7d576040513d6000823e3d81fd5b3d92506000519150506000821462000b9a57600181141562000bb6565b60008473ffffffffffffffffffffffffffffffffffffffff163b145b1562000bfb57836040517f5274afe700000000000000000000000000000000000000000000000000000000815260040162000bf2919062000d7e565b60405180910390fd5b50505050565b612de9806200120d83390190565b600073ffffffffffffffffffffffffffffffffffffffff82169050919050565b6000819050919050565b600062000c5a62000c5462000c4e8462000c0f565b62000c2f565b62000c0f565b9050919050565b600062000c6e8262000c39565b9050919050565b600062000c828262000c61565b9050919050565b62000c948162000c75565b82525050565b600060208201905062000cb1600083018462000c89565b92915050565b600080fd5b600062000cc98262000c0f565b9050919050565b62000cdb8162000cbc565b811462000ce757600080fd5b50565b60008135905062000cfb8162000cd0565b92915050565b60006020828403121562000d1a5762000d1962000cb7565b5b600062000d2a8482850162000cea565b91505092915050565b60008115159050919050565b62000d4a8162000d33565b82525050565b600060208201905062000d67600083018462000d3f565b92915050565b62000d788162000cbc565b82525050565b600060208201905062000d95600083018462000d6d565b92915050565b6000819050919050565b62000db08162000d9b565b82525050565b600060208201905062000dcd600083018462000da5565b92915050565b62000dde8162000d9b565b811462000dea57600080fd5b50565b60008135905062000dfe8162000dd3565b92915050565b60006020828403121562000e1d5762000e1c62000cb7565b5b600062000e2d8482850162000ded565b91505092915050565b600081519050919050565b600082825260208201905092915050565b6000819050602082019050919050565b62000e6d8162000cbc565b82525050565b600062000e81838362000e62565b60208301905092915050565b6000602082019050919050565b600062000ea78262000e36565b62000eb3818562000e41565b935062000ec08362000e52565b8060005b8381101562000ef757815162000edb888262000e73565b975062000ee88362000e8d565b92505060018101905062000ec4565b5085935050505092915050565b6000602082019050818103600083015262000f20818462000e9a565b905092915050565b600062000f358262000cbc565b9050919050565b62000f478162000f28565b811462000f5357600080fd5b50565b60008135905062000f678162000f3c565b92915050565b60008060006060848603121562000f895762000f8862000cb7565b5b600062000f998682870162000f56565b935050602062000fac8682870162000cea565b925050604062000fbf8682870162000ded565b9150509250925092565b600082825260208201905092915050565b7f4c61756e6368706164206e6f7420666f756e6400000000000000000000000000600082015250565b60006200101260138362000fc9565b91506200101f8262000fda565b602082019050919050565b60006020820190508181036000830152620010458162001003565b9050919050565b7f496e76616c696420746f6b656e20616464726573730000000000000000000000600082015250565b60006200108460158362000fc9565b915062001091826200104c565b602082019050919050565b60006020820190508181036000830152620010b78162001075565b9050919050565b7f496e76616c6964207369676e6572206164647265737300000000000000000000600082015250565b6000620010f660168362000fc9565b91506200110382620010be565b602082019050919050565b600060208201905081810360008301526200112981620010e7565b9050919050565b7f496e76616c69642073656c6c6572207072696365000000000000000000000000600082015250565b60006200116860148362000fc9565b9150620011758262001130565b602082019050919050565b600060208201905081810360008301526200119b8162001159565b9050919050565b6000604082019050620011b9600083018562000c89565b620011c8602083018462000d6d565b9392505050565b6000606082019050620011e6600083018662000d6d565b620011f5602083018562000d6d565b62001204604083018462000da5565b94935050505056fe6101806040523480156200001257600080fd5b5060405162002de938038062002de9833981810160405281019062000038919062000574565b336040518060400160405280600981526020017f4c61756e636870616400000000000000000000000000000000000000000000008152506040518060400160405280600381526020017f312e300000000000000000000000000000000000000000000000000000000000815250620000bb600083620002d360201b90919060201c565b6101208181525050620000d9600182620002d360201b90919060201c565b6101408181525050818051906020012060e08181525050808051906020012061010081815250504660a08181525050620001186200032b60201b60201c565b608081815250503073ffffffffffffffffffffffffffffffffffffffff1660c08173ffffffffffffffffffffffffffffffffffffffff16815250505050600073ffffffffffffffffffffffffffffffffffffffff168173ffffffffffffffffffffffffffffffffffffffff1603620001ca5760006040517f1e4fbdf7000000000000000000000000000000000000000000000000000000008152600401620001c19190620005cc565b60405180910390fd5b620001db816200038860201b60201c565b50600073ffffffffffffffffffffffffffffffffffffffff168173ffffffffffffffffffffffffffffffffffffffff16036200024e576040517f08c379a000000000000000000000000000000000000000000000000000000000815260040162000245906200064a565b60405180910390fd5b8173ffffffffffffffffffffffffffffffffffffffff166101608173ffffffffffffffffffffffffffffffffffffffff168152505080600360006101000a81548173ffffffffffffffffffffffffffffffffffffffff021916908373ffffffffffffffffffffffffffffffffffffffff16021790555042600481905550505062000b9a565b6000602083511015620002f957620002f1836200044e60201b60201c565b905062000325565b826200030b83620004bb60201b60201c565b60000190816200031c9190620008e6565b5060ff60001b90505b92915050565b60007f8b73c3c69bb8fe3d512ecc4cf759cc79239f7b179b0ffacaa9a75d522b39400f60e0516101005146306040516020016200036d959493929190620009f9565b60405160208183030381529060405280519060200120905090565b6000600260009054906101000a900473ffffffffffffffffffffffffffffffffffffffff16905081600260006101000a81548173ffffffffffffffffffffffffffffffffffffffff021916908373ffffffffffffffffffffffffffffffffffffffff1602179055508173ffffffffffffffffffffffffffffffffffffffff168173ffffffffffffffffffffffffffffffffffffffff167f8be0079c531659141344cd1fd0a4f28419497f9722a3daafe3b4186f6b6457e060405160405180910390a35050565b600080829050601f815111156200049e57826040517f305a27a900000000000000000000000000000000000000000000000000000000815260040162000495919062000ad4565b60405180910390fd5b805181620004ac9062000b2a565b60001c1760001b915050919050565b6000819050919050565b600080fd5b600073ffffffffffffffffffffffffffffffffffffffff82169050919050565b6000620004f782620004ca565b9050919050565b60006200050b82620004ea565b9050919050565b6200051d81620004fe565b81146200052957600080fd5b50565b6000815190506200053d8162000512565b92915050565b6200054e81620004ea565b81146200055a57600080fd5b50565b6000815190506200056e8162000543565b92915050565b600080604083850312156200058e576200058d620004c5565b5b60006200059e858286016200052c565b9250506020620005b1858286016200055d565b9150509250929050565b620005c681620004ea565b82525050565b6000602082019050620005e36000830184620005bb565b92915050565b600082825260208201905092915050565b7f496e76616c6964207369676e6572206164647265737300000000000000000000600082015250565b600062000632601683620005e9565b91506200063f82620005fa565b602082019050919050565b60006020820190508181036000830152620006658162000623565b9050919050565b600081519050919050565b7f4e487b7100000000000000000000000000000000000000000000000000000000600052604160045260246000fd5b7f4e487b7100000000000000000000000000000000000000000000000000000000600052602260045260246000fd5b60006002820490506001821680620006ee57607f821691505b602082108103620007045762000703620006a6565b5b50919050565b60008190508160005260206000209050919050565b60006020601f8301049050919050565b600082821b905092915050565b6000600883026200076e7fffffffffffffffffffffffffffffffffffffffffffffffffffffffffffffffff826200072f565b6200077a86836200072f565b95508019841693508086168417925050509392505050565b6000819050919050565b6000819050919050565b6000620007c7620007c1620007bb8462000792565b6200079c565b62000792565b9050919050565b6000819050919050565b620007e383620007a6565b620007fb620007f282620007ce565b8484546200073c565b825550505050565b600090565b6200081262000803565b6200081f818484620007d8565b505050565b5b8181101562000847576200083b60008262000808565b60018101905062000825565b5050565b601f821115620008965762000860816200070a565b6200086b846200071f565b810160208510156200087b578190505b620008936200088a856200071f565b83018262000824565b50505b505050565b600082821c905092915050565b6000620008bb600019846008026200089b565b1980831691505092915050565b6000620008d68383620008a8565b9150826002028217905092915050565b620008f1826200066c565b67ffffffffffffffff8111156200090d576200090c62000677565b5b620009198254620006d5565b620009268282856200084b565b600060209050601f8311600181146200095e576000841562000949578287015190505b620009558582620008c8565b865550620009c5565b601f1984166200096e866200070a565b60005b82811015620009985784890151825560018201915060208501945060208101905062000971565b86831015620009b85784890151620009b4601f891682620008a8565b8355505b6001600288020188555050505b505050505050565b6000819050919050565b620009e281620009cd565b82525050565b620009f38162000792565b82525050565b600060a08201905062000a106000830188620009d7565b62000a1f6020830187620009d7565b62000a2e6040830186620009d7565b62000a3d6060830185620009e8565b62000a4c6080830184620005bb565b9695505050505050565b60005b8381101562000a7657808201518184015260208101905062000a59565b60008484015250505050565b6000601f19601f8301169050919050565b600062000aa0826200066c565b62000aac8185620005e9565b935062000abe81856020860162000a56565b62000ac98162000a82565b840191505092915050565b6000602082019050818103600083015262000af0818462000a93565b905092915050565b600081519050919050565b6000819050602082019050919050565b600062000b218251620009cd565b80915050919050565b600062000b378262000af8565b8262000b438462000b03565b905062000b508162000b13565b9250602082101562000b935762000b8e7fffffffffffffffffffffffffffffffffffffffffffffffffffffffffffffffff836020036008026200072f565b831692505b5050919050565b60805160a05160c05160e051610100516101205161014051610160516121c662000c23600039600081816106170152818161077e015281816108690152818161099c01528181610a680152610d2d01526000610fa501526000610f6a0152600061142f0152600061140e01526000610fdb015260006110310152600061105a01526121c66000f3fe608060405234801561001057600080fd5b50600436106100f55760003560e01c80638d4e408311610097578063b293109611610066578063b29310961461021c578063ecda10f51461024c578063f2fde38b1461026a578063f6d6d5aa14610286576100f5565b80638d4e4083146101ba5780638da5cb5b146101d8578063a3916164146101f6578063a7ecd37e14610200576100f5565b80636548b7ae116100d35780636548b7ae14610166578063715018a61461018257806384b0196e1461018c5780638afbf669146101b0576100f5565b80630bf390b8146100fa578063238ac933146101185780634d3dccf914610136575b600080fd5b6101026102a4565b60405161010f9190611650565b60405180910390f35b6101206102ab565b60405161012d91906116ac565b60405180910390f35b610150600480360381019061014b9190611729565b6102d1565b60405161015d9190611784565b60405180910390f35b610180600480360381019061017b9190611804565b610339565b005b61018a6106b4565b005b6101946106c8565b6040516101a79796959493929190611a2e565b60405180910390f35b6101b8610772565b005b6101c26108b0565b6040516101cf9190611784565b60405180910390f35b6101e06108c3565b6040516101ed91906116ac565b60405180910390f35b6101fe6108ed565b005b61021a60048036038101906102159190611ab2565b610b33565b005b61023660048036038101906102319190611729565b610c70565b6040516102439190611784565b60405180910390f35b610254610c9f565b6040516102619190611650565b60405180910390f35b610284600480360381019061027f9190611ab2565b610ca5565b005b61028e610d2b565b60405161029b9190611b3e565b60405180910390f35b62093a8081565b600360009054906101000a900473ffffffffffffffffffffffffffffffffffffffff1681565b6000600560008473ffffffffffffffffffffffffffffffffffffffff1673ffffffffffffffffffffffffffffffffffffffff168152602001908152602001600020600083815260200190815260200160002060009054906101000a900460ff16905092915050565b600360149054906101000a900460ff1615610389576040517f08c379a000000000000000000000000000000000000000000000000000000000815260040161038090611ba5565b60405180910390fd5b824211156103cc576040517f08c379a00000000000000000000000000000000000000000000000000000000081526004016103c390611c11565b60405180910390fd5b600560003373ffffffffffffffffffffffffffffffffffffffff1673ffffffffffffffffffffffffffffffffffffffff168152602001908152602001600020600085815260200190815260200160002060009054906101000a900460ff161561046a576040517f08c379a000000000000000000000000000000000000000000000000000000000815260040161046190611c7d565b60405180910390fd5b60006104c37f4711c4c24e2204d01e04ed72ea5fa451a3950006e6d78a2016f87b684de93f9c338888886040516020016104a8959493929190611c9d565b60405160208183030381529060405280519060200120610d4f565b905060006105158285858080601f016020809104026020016040519081016040528093929190818152602001838380828437600081840152601f19601f82011690508083019250505050505050610d69565b9050600360009054906101000a900473ffffffffffffffffffffffffffffffffffffffff1673ffffffffffffffffffffffffffffffffffffffff168173ffffffffffffffffffffffffffffffffffffffff16146105a7576040517f08c379a000000000000000000000000000000000000000000000000000000000815260040161059e90611d3c565b60405180910390fd5b6001600560003373ffffffffffffffffffffffffffffffffffffffff1673ffffffffffffffffffffffffffffffffffffffff168152602001908152602001600020600088815260200190815260200160002060006101000a81548160ff02191690831515021790555061065b33887f000000000000000000000000000000000000000000000000000000000000000073ffffffffffffffffffffffffffffffffffffffff16610d959092919063ffffffff16565b3373ffffffffffffffffffffffffffffffffffffffff167fcb1e26772e882480176a3e649a5f7937dc0ec3f50126283faf56f927b070be8088886040516106a3929190611d5c565b60405180910390a250505050505050565b6106bc610e14565b6106c66000610e9b565b565b6000606080600080600060606106dc610f61565b6106e4610f9c565b46306000801b600067ffffffffffffffff81111561070557610704611d85565b5b6040519080825280602002602001820160405280156107335781602001602082028036833780820191505090505b507f0f00000000000000000000000000000000000000000000000000000000000000959493929190965096509650965096509650965090919293949596565b61077a610e14565b60007f000000000000000000000000000000000000000000000000000000000000000073ffffffffffffffffffffffffffffffffffffffff166370a08231306040518263ffffffff1660e01b81526004016107d591906116ac565b602060405180830381865afa1580156107f2573d6000803e3d6000fd5b505050506040513d601f19601f820116820180604052508101906108169190611dc9565b90506000811161085b576040517f08c379a000000000000000000000000000000000000000000000000000000000815260040161085290611e42565b60405180910390fd5b6108ad6108666108c3565b827f000000000000000000000000000000000000000000000000000000000000000073ffffffffffffffffffffffffffffffffffffffff16610d959092919063ffffffff16565b50565b600360149054906101000a900460ff1681565b6000600260009054906101000a900473ffffffffffffffffffffffffffffffffffffffff16905090565b6108f5610e14565b600360149054906101000a900460ff1615610945576040517f08c379a000000000000000000000000000000000000000000000000000000000815260040161093c90611eae565b60405180910390fd5b62093a806004546109569190611efd565b421015610998576040517f08c379a000000000000000000000000000000000000000000000000000000000815260040161098f90611f7d565b60405180910390fd5b60007f000000000000000000000000000000000000000000000000000000000000000073ffffffffffffffffffffffffffffffffffffffff166370a08231306040518263ffffffff1660e01b81526004016109f391906116ac565b602060405180830381865afa158015610a10573d6000803e3d6000fd5b505050506040513d601f19601f82011682018060405250810190610a349190611dc9565b90506001600360146101000a81548160ff0219169083151502179055506000811115610aad57610aac610a656108c3565b827f000000000000000000000000000000000000000000000000000000000000000073ffffffffffffffffffffffffffffffffffffffff16610d959092919063ffffffff16565b5b7fdc508fdeadbe6e2e8063bf4c6da7d8589fed45163c625b501d9a4ba76b9081918142604051610ade929190611d5c565b60405180910390a1610aee6108c3565b73ffffffffffffffffffffffffffffffffffffffff167fafb88695a1134dcc8ebc575d5da8a9f389d6aff5010e6bfee5d91c804fb9bdbc60405160405180910390a250565b610b3b610e14565b600073ffffffffffffffffffffffffffffffffffffffff168173ffffffffffffffffffffffffffffffffffffffff1603610baa576040517f08c379a0000000000000000000000000000000000000000000000000000000008152600401610ba190611fe9565b60405180910390fd5b6000600360009054906101000a900473ffffffffffffffffffffffffffffffffffffffff16905081600360006101000a81548173ffffffffffffffffffffffffffffffffffffffff021916908373ffffffffffffffffffffffffffffffffffffffff1602179055508173ffffffffffffffffffffffffffffffffffffffff168173ffffffffffffffffffffffffffffffffffffffff167f2d025324f0a785e8c12d0a0d91a9caa49df4ef20ff87e0df7213a1d4f3157beb60405160405180910390a35050565b60056020528160005260406000206020528060005260406000206000915091509054906101000a900460ff1681565b60045481565b610cad610e14565b600073ffffffffffffffffffffffffffffffffffffffff168173ffffffffffffffffffffffffffffffffffffffff1603610d1f5760006040517f1e4fbdf7000000000000000000000000000000000000000000000000000000008152600401610d1691906116ac565b60405180910390fd5b610d2881610e9b565b50565b7f000000000000000000000000000000000000000000000000000000000000000081565b6000610d62610d5c610fd7565b8361108e565b9050919050565b600080600080610d7986866110cf565b925092509250610d89828261112b565b82935050505092915050565b610e0f838473ffffffffffffffffffffffffffffffffffffffff1663a9059cbb8585604051602401610dc8929190612009565b604051602081830303815290604052915060e01b6020820180517bffffffffffffffffffffffffffffffffffffffffffffffffffffffff838183161783525050505061128f565b505050565b610e1c611331565b73ffffffffffffffffffffffffffffffffffffffff16610e3a6108c3565b73ffffffffffffffffffffffffffffffffffffffff1614610e9957610e5d611331565b6040517f118cdaa7000000000000000000000000000000000000000000000000000000008152600401610e9091906116ac565b60405180910390fd5b565b6000600260009054906101000a900473ffffffffffffffffffffffffffffffffffffffff16905081600260006101000a81548173ffffffffffffffffffffffffffffffffffffffff021916908373ffffffffffffffffffffffffffffffffffffffff1602179055508173ffffffffffffffffffffffffffffffffffffffff168173ffffffffffffffffffffffffffffffffffffffff167f8be0079c531659141344cd1fd0a4f28419497f9722a3daafe3b4186f6b6457e060405160405180910390a35050565b6060610f9760007f000000000000000000000000000000000000000000000000000000000000000061133990919063ffffffff16565b905090565b6060610fd260017f000000000000000000000000000000000000000000000000000000000000000061133990919063ffffffff16565b905090565b60007f000000000000000000000000000000000000000000000000000000000000000073ffffffffffffffffffffffffffffffffffffffff163073ffffffffffffffffffffffffffffffffffffffff1614801561105357507f000000000000000000000000000000000000000000000000000000000000000046145b15611080577f0000000000000000000000000000000000000000000000000000000000000000905061108b565b6110886113e9565b90505b90565b60006040517f190100000000000000000000000000000000000000000000000000000000000081528360028201528260228201526042812091505092915050565b600080600060418451036111145760008060006020870151925060408701519150606087015160001a90506111068882858561147f565b955095509550505050611124565b60006002855160001b9250925092505b9250925092565b6000600381111561113f5761113e612032565b5b82600381111561115257611151612032565b5b031561128b576001600381111561116c5761116b612032565b5b82600381111561117f5761117e612032565b5b036111b6576040517ff645eedf00000000000000000000000000000000000000000000000000000000815260040160405180910390fd5b600260038111156111ca576111c9612032565b5b8260038111156111dd576111dc612032565b5b03611222578060001c6040517ffce698f70000000000000000000000000000000000000000000000000000000081526004016112199190611650565b60405180910390fd5b60038081111561123557611234612032565b5b82600381111561124857611247612032565b5b0361128a57806040517fd78bce0c0000000000000000000000000000000000000000000000000000000081526004016112819190612061565b60405180910390fd5b5b5050565b600080602060008451602086016000885af1806112b2576040513d6000823e3d81fd5b3d9250600051915050600082146112cd5760018114156112e9565b60008473ffffffffffffffffffffffffffffffffffffffff163b145b1561132b57836040517f5274afe700000000000000000000000000000000000000000000000000000000815260040161132291906116ac565b60405180910390fd5b50505050565b600033905090565b606060ff60001b83146113565761134f83611573565b90506113e3565b818054611362906120ab565b80601f016020809104026020016040519081016040528092919081815260200182805461138e906120ab565b80156113db5780601f106113b0576101008083540402835291602001916113db565b820191906000526020600020905b8154815290600101906020018083116113be57829003601f168201915b505050505090505b92915050565b60007f8b73c3c69bb8fe3d512ecc4cf759cc79239f7b179b0ffacaa9a75d522b39400f7f00000000000000000000000000000000000000000000000000000000000000007f000000000000000000000000000000000000000000000000000000000000000046306040516020016114649594939291906120dc565b60405160208183030381529060405280519060200120905090565b60008060007f7fffffffffffffffffffffffffffffff5d576e7357a4501ddfe92f46681b20a08460001c11156114bf576000600385925092509250611569565b6000600188888888604051600081526020016040526040516114e4949392919061214b565b6020604051602081039080840390855afa158015611506573d6000803e3d6000fd5b505050602060405103519050600073ffffffffffffffffffffffffffffffffffffffff168173ffffffffffffffffffffffffffffffffffffffff160361155a57600060016000801b93509350935050611569565b8060008060001b935093509350505b9450945094915050565b60606000611580836115e7565b90506000602067ffffffffffffffff81111561159f5761159e611d85565b5b6040519080825280601f01601f1916602001820160405280156115d15781602001600182028036833780820191505090505b5090508181528360208201528092505050919050565b60008060ff8360001c169050601f81111561162e576040517fb3512b0c00000000000000000000000000000000000000000000000000000000815260040160405180910390fd5b80915050919050565b6000819050919050565b61164a81611637565b82525050565b60006020820190506116656000830184611641565b92915050565b600073ffffffffffffffffffffffffffffffffffffffff82169050919050565b60006116968261166b565b9050919050565b6116a68161168b565b82525050565b60006020820190506116c1600083018461169d565b92915050565b600080fd5b600080fd5b6116da8161168b565b81146116e557600080fd5b50565b6000813590506116f7816116d1565b92915050565b61170681611637565b811461171157600080fd5b50565b600081359050611723816116fd565b92915050565b600080604083850312156117405761173f6116c7565b5b600061174e858286016116e8565b925050602061175f85828601611714565b9150509250929050565b60008115159050919050565b61177e81611769565b82525050565b60006020820190506117996000830184611775565b92915050565b600080fd5b600080fd5b600080fd5b60008083601f8401126117c4576117c361179f565b5b8235905067ffffffffffffffff8111156117e1576117e06117a4565b5b6020830191508360018202830111156117fd576117fc6117a9565b5b9250929050565b6000806000806000608086880312156118205761181f6116c7565b5b600061182e88828901611714565b955050602061183f88828901611714565b945050604061185088828901611714565b935050606086013567ffffffffffffffff811115611871576118706116cc565b5b61187d888289016117ae565b92509250509295509295909350565b60007fff0000000000000000000000000000000000000000000000000000000000000082169050919050565b6118c18161188c565b82525050565b600081519050919050565b600082825260208201905092915050565b60005b838110156119015780820151818401526020810190506118e6565b60008484015250505050565b6000601f19601f8301169050919050565b6000611929826118c7565b61193381856118d2565b93506119438185602086016118e3565b61194c8161190d565b840191505092915050565b6000819050919050565b61196a81611957565b82525050565b600081519050919050565b600082825260208201905092915050565b6000819050602082019050919050565b6119a581611637565b82525050565b60006119b7838361199c565b60208301905092915050565b6000602082019050919050565b60006119db82611970565b6119e5818561197b565b93506119f08361198c565b8060005b83811015611a21578151611a0888826119ab565b9750611a13836119c3565b9250506001810190506119f4565b5085935050505092915050565b600060e082019050611a43600083018a6118b8565b8181036020830152611a55818961191e565b90508181036040830152611a69818861191e565b9050611a786060830187611641565b611a85608083018661169d565b611a9260a0830185611961565b81810360c0830152611aa481846119d0565b905098975050505050505050565b600060208284031215611ac857611ac76116c7565b5b6000611ad6848285016116e8565b91505092915050565b6000819050919050565b6000611b04611aff611afa8461166b565b611adf565b61166b565b9050919050565b6000611b1682611ae9565b9050919050565b6000611b2882611b0b565b9050919050565b611b3881611b1d565b82525050565b6000602082019050611b536000830184611b2f565b92915050565b7f4c61756e636870616420686173206265656e2066696e616c697a656400000000600082015250565b6000611b8f601c836118d2565b9150611b9a82611b59565b602082019050919050565b60006020820190508181036000830152611bbe81611b82565b9050919050565b7f436c61696d206861732065787069726564000000000000000000000000000000600082015250565b6000611bfb6011836118d2565b9150611c0682611bc5565b602082019050919050565b60006020820190508181036000830152611c2a81611bee565b9050919050565b7f416c726561647920636c61696d65640000000000000000000000000000000000600082015250565b6000611c67600f836118d2565b9150611c7282611c31565b602082019050919050565b60006020820190508181036000830152611c9681611c5a565b9050919050565b600060a082019050611cb26000830188611961565b611cbf602083018761169d565b611ccc6040830186611641565b611cd96060830185611641565b611ce66080830184611641565b9695505050505050565b7f496e76616c6964207369676e6174757265000000000000000000000000000000600082015250565b6000611d266011836118d2565b9150611d3182611cf0565b602082019050919050565b60006020820190508181036000830152611d5581611d19565b9050919050565b6000604082019050611d716000830185611641565b611d7e6020830184611641565b9392505050565b7f4e487b7100000000000000000000000000000000000000000000000000000000600052604160045260246000fd5b600081519050611dc3816116fd565b92915050565b600060208284031215611ddf57611dde6116c7565b5b6000611ded84828501611db4565b91505092915050565b7f4e6f20746f6b656e7320746f2077697468647261770000000000000000000000600082015250565b6000611e2c6015836118d2565b9150611e3782611df6565b602082019050919050565b60006020820190508181036000830152611e5b81611e1f565b9050919050565b7f4c61756e636870616420616c72656164792066696e616c697a65640000000000600082015250565b6000611e98601b836118d2565b9150611ea382611e62565b602082019050919050565b60006020820190508181036000830152611ec781611e8b565b9050919050565b7f4e487b7100000000000000000000000000000000000000000000000000000000600052601160045260246000fd5b6000611f0882611637565b9150611f1383611637565b9250828201905080821115611f2b57611f2a611ece565b5b92915050565b7f5769746864726177616c206e6f742079657420617661696c61626c6500000000600082015250565b6000611f67601c836118d2565b9150611f7282611f31565b602082019050919050565b60006020820190508181036000830152611f9681611f5a565b9050919050565b7f496e76616c6964207369676e6572206164647265737300000000000000000000600082015250565b6000611fd36016836118d2565b9150611fde82611f9d565b602082019050919050565b6000602082019050818103600083015261200281611fc6565b9050919050565b600060408201905061201e600083018561169d565b61202b6020830184611641565b9392505050565b7f4e487b7100000000000000000000000000000000000000000000000000000000600052602160045260246000fd5b60006020820190506120766000830184611961565b92915050565b7f4e487b7100000000000000000000000000000000000000000000000000000000600052602260045260246000fd5b600060028204905060018216806120c357607f821691505b6020821081036120d6576120d561207c565b5b50919050565b600060a0820190506120f16000830188611961565b6120fe6020830187611961565b61210b6040830186611961565b6121186060830185611641565b612125608083018461169d565b9695505050505050565b600060ff82169050919050565b6121458161212f565b82525050565b60006080820190506121606000830187611961565b61216d602083018661213c565b61217a6040830185611961565b6121876060830184611961565b9594505050505056fea2646970667358221220b6f83235a330fcc29245de99e26c33fd6e6e5df1630de016d9914c45145363a064736f6c63430008140033a2646970667358221220d3f28089262937b191f5582d0c172113679d88d56e680a0f28f3271d930607cd64736f6c63430008140033",
  "linkReferences": {},
  "deployedLinkReferences": {}
}